{
    "contractName": "DeliveryManager",
    "abi": [
        {
            "inputs": [],
            "stateMutability": "nonpayable",
            "type": "constructor"
        },
        {
            "anonymous": false,
            "inputs": [
                {
                    "indexed": false,
                    "internalType": "uint256",
                    "name": "_newCommissionRate",
                    "type": "uint256"
                }
            ],
            "name": "CommissionRateChanged",
            "type": "event"
        },
        {
            "anonymous": false,
            "inputs": [
                {
                    "indexed": false,
                    "internalType": "bool",
                    "name": "_isOnTime",
                    "type": "bool"
                }
            ],
            "name": "DeadlineCheck",
            "type": "event"
        },
        {
            "anonymous": false,
            "inputs": [
                {
                    "indexed": false,
                    "internalType": "bytes32",
                    "name": "_deliveryHash",
                    "type": "bytes32"
                }
            ],
            "name": "DeliveryCreated",
            "type": "event"
        },
        {
            "anonymous": false,
            "inputs": [
                {
                    "indexed": false,
                    "internalType": "bytes32",
                    "name": "_deliveryHash",
                    "type": "bytes32"
                },
                {
                    "indexed": false,
                    "internalType": "uint256",
                    "name": "_endTime",
                    "type": "uint256"
                }
            ],
            "name": "DeliveryEnded",
            "type": "event"
        },
        {
            "anonymous": false,
            "inputs": [
                {
                    "indexed": false,
                    "internalType": "bytes32",
                    "name": "_deliveryHash",
                    "type": "bytes32"
                },
                {
                    "indexed": false,
                    "internalType": "uint256",
                    "name": "_startTime",
                    "type": "uint256"
                }
            ],
            "name": "DeliveryStarted",
            "type": "event"
        },
        {
            "anonymous": false,
            "inputs": [
                {
                    "indexed": false,
                    "internalType": "bytes32",
                    "name": "_deliveryHash",
                    "type": "bytes32"
                },
                {
                    "indexed": false,
                    "internalType": "address",
                    "name": "_applicant",
                    "type": "address"
                }
            ],
            "name": "NewDeliveryApplication",
            "type": "event"
        },
        {
            "anonymous": false,
            "inputs": [
                {
                    "indexed": true,
                    "internalType": "address",
                    "name": "previousOwner",
                    "type": "address"
                },
                {
                    "indexed": true,
                    "internalType": "address",
                    "name": "newOwner",
                    "type": "address"
                }
            ],
            "name": "OwnershipTransferred",
            "type": "event"
        },
        {
            "inputs": [],
            "name": "owner",
            "outputs": [
                {
                    "internalType": "address",
                    "name": "",
                    "type": "address"
                }
            ],
            "stateMutability": "view",
            "type": "function"
        },
        {
            "inputs": [],
            "name": "renounceOwnership",
            "outputs": [],
            "stateMutability": "nonpayable",
            "type": "function"
        },
        {
            "inputs": [
                {
                    "internalType": "address",
                    "name": "newOwner",
                    "type": "address"
                }
            ],
            "name": "transferOwnership",
            "outputs": [],
            "stateMutability": "nonpayable",
            "type": "function"
        },
        {
            "inputs": [
                {
                    "internalType": "bytes32",
                    "name": "_senderName",
                    "type": "bytes32"
                },
                {
                    "internalType": "bytes32",
                    "name": "_senderPhone",
                    "type": "bytes32"
                },
                {
                    "internalType": "bytes32",
                    "name": "_senderEmail",
                    "type": "bytes32"
                },
                {
                    "internalType": "address",
                    "name": "_receiverEthAddress",
                    "type": "address"
                },
                {
                    "internalType": "bytes32",
                    "name": "_receiverName",
                    "type": "bytes32"
                },
                {
                    "internalType": "bytes32",
                    "name": "_receiverPhone",
                    "type": "bytes32"
                },
                {
                    "internalType": "bytes32",
                    "name": "_receiverEmail",
                    "type": "bytes32"
                },
                {
                    "internalType": "bytes32",
                    "name": "_fromAddress",
                    "type": "bytes32"
                },
                {
                    "internalType": "bytes32",
                    "name": "_toAddress",
                    "type": "bytes32"
                },
                {
                    "internalType": "uint256",
                    "name": "_reward",
                    "type": "uint256"
                },
                {
                    "internalType": "uint256",
                    "name": "_cautionAmount",
                    "type": "uint256"
                },
                {
                    "internalType": "uint256",
                    "name": "_deadline",
                    "type": "uint256"
                }
            ],
            "name": "createDelivery",
            "outputs": [],
            "stateMutability": "nonpayable",
            "type": "function"
        },
        {
            "inputs": [
                {
                    "internalType": "bytes32",
                    "name": "_deliveryHash",
                    "type": "bytes32"
                }
            ],
            "name": "getDelivery",
            "outputs": [
                {
                    "internalType": "enum DeliveryManager.DeliveryState",
                    "name": "state",
                    "type": "uint8"
                },
                {
                    "internalType": "address",
                    "name": "sender",
                    "type": "address"
                },
                {
                    "internalType": "address",
                    "name": "receiver",
                    "type": "address"
                },
                {
                    "internalType": "uint256",
                    "name": "timestamp",
                    "type": "uint256"
                },
                {
                    "internalType": "uint256",
                    "name": "startTime",
                    "type": "uint256"
                },
                {
                    "internalType": "uint256",
                    "name": "endTime",
                    "type": "uint256"
                },
                {
                    "internalType": "bytes32",
                    "name": "fromAddress",
                    "type": "bytes32"
                },
                {
                    "internalType": "bytes32",
                    "name": "toAddress",
                    "type": "bytes32"
                },
                {
                    "internalType": "uint256",
                    "name": "reward",
                    "type": "uint256"
                },
                {
                    "internalType": "uint256",
                    "name": "cautionAmount",
                    "type": "uint256"
                },
                {
                    "internalType": "uint256",
                    "name": "deadline",
                    "type": "uint256"
                },
                {
                    "internalType": "address payable",
                    "name": "courier",
                    "type": "address"
                }
            ],
            "stateMutability": "view",
            "type": "function"
        },
        {
            "inputs": [
                {
                    "internalType": "uint256",
                    "name": "_index",
                    "type": "uint256"
                }
            ],
            "name": "getDeliveryHash",
            "outputs": [
                {
                    "internalType": "bytes32",
                    "name": "",
                    "type": "bytes32"
                }
            ],
            "stateMutability": "view",
            "type": "function"
        },
        {
            "inputs": [],
            "name": "getDeliveryCount",
            "outputs": [
                {
                    "internalType": "uint256",
                    "name": "",
                    "type": "uint256"
                }
            ],
            "stateMutability": "view",
            "type": "function"
        },
        {
            "inputs": [
                {
                    "internalType": "bytes32",
                    "name": "_deliveryHash",
                    "type": "bytes32"
                }
            ],
            "name": "getCommissionRateForDelivery",
            "outputs": [
                {
                    "internalType": "uint256",
                    "name": "",
                    "type": "uint256"
                }
            ],
            "stateMutability": "view",
            "type": "function"
        },
        {
            "inputs": [
                {
                    "internalType": "bytes32",
                    "name": "_deliveryHash",
                    "type": "bytes32"
                }
            ],
            "name": "doesDeliveryExist",
            "outputs": [
                {
                    "internalType": "bool",
                    "name": "",
                    "type": "bool"
                }
            ],
            "stateMutability": "view",
            "type": "function"
        },
        {
            "inputs": [
                {
                    "internalType": "address",
                    "name": "_userEthAddress",
                    "type": "address"
                }
            ],
            "name": "getUser",
            "outputs": [
                {
                    "internalType": "bytes32",
                    "name": "name",
                    "type": "bytes32"
                },
                {
                    "internalType": "bytes32",
                    "name": "phone",
                    "type": "bytes32"
                },
                {
                    "internalType": "bytes32",
                    "name": "email",
                    "type": "bytes32"
                }
            ],
            "stateMutability": "view",
            "type": "function"
        },
        {
            "inputs": [
                {
                    "internalType": "bytes32",
                    "name": "_deliveryHash",
                    "type": "bytes32"
                },
                {
                    "internalType": "bytes32",
                    "name": "_applicantName",
                    "type": "bytes32"
                },
                {
                    "internalType": "bytes32",
                    "name": "_applicantPhone",
                    "type": "bytes32"
                },
                {
                    "internalType": "bytes32",
                    "name": "_applicantEmail",
                    "type": "bytes32"
                }
            ],
            "name": "applyToDelivery",
            "outputs": [],
            "stateMutability": "payable",
            "type": "function"
        },
        {
            "inputs": [
                {
                    "internalType": "bytes32",
                    "name": "_deliveryHash",
                    "type": "bytes32"
                }
            ],
            "name": "startDelivery",
            "outputs": [],
            "stateMutability": "payable",
            "type": "function"
        },
        {
            "inputs": [
                {
                    "internalType": "bytes32",
                    "name": "_deliveryHash",
                    "type": "bytes32"
                }
            ],
            "name": "signReceip",
            "outputs": [],
            "stateMutability": "nonpayable",
            "type": "function"
        },
        {
            "inputs": [
                {
                    "internalType": "uint256",
                    "name": "_newRate",
                    "type": "uint256"
                }
            ],
            "name": "changeCommissionRate",
            "outputs": [],
            "stateMutability": "nonpayable",
            "type": "function"
        },
        {
            "inputs": [
                {
                    "internalType": "bytes32",
                    "name": "_deliveryHash",
                    "type": "bytes32"
                }
            ],
            "name": "triggerIsOverTime",
            "outputs": [],
            "stateMutability": "payable",
            "type": "function"
        },
        {
            "inputs": [],
            "name": "getCommissionRate",
            "outputs": [
                {
                    "internalType": "uint256",
                    "name": "",
                    "type": "uint256"
                }
            ],
            "stateMutability": "view",
            "type": "function"
        }
    ],
    "bytecode": "0x608060405234801561001057600080fd5b50600061002a6100d5640100000000026401000000009004565b9050806000806101000a81548173ffffffffffffffffffffffffffffffffffffffff021916908373ffffffffffffffffffffffffffffffffffffffff1602179055508073ffffffffffffffffffffffffffffffffffffffff16600073ffffffffffffffffffffffffffffffffffffffff167f8be0079c531659141344cd1fd0a4f28419497f9722a3daafe3b4186f6b6457e060405160405180910390a350600a6001819055506100dd565b600033905090565b611e19806100ec6000396000f3fe608060405260043610610110576000357c0100000000000000000000000000000000000000000000000000000000900480636f77926b116100a75780639fd1f0a9116100765780639fd1f0a91461047c578063edab743e146104c8578063f2fde38b146105f6578063f5f3c3da1461064757610110565b80636f77926b1461036d578063715018a6146103e057806386404c87146103f75780638da5cb5b1461042557610110565b80632f051579116100e35780632f051579146102ae5780633e4eb36c146102d957806358bd0caa146103045780636642642a1461033257610110565b8063125c19c0146101155780631f900d8a146101645780632aac725e146101b35780632b1d267b14610273575b600080fd5b34801561012157600080fd5b5061014e6004803603602081101561013857600080fd5b810190808035906020019092919050505061069a565b6040518082815260200191505060405180910390f35b34801561017057600080fd5b5061019d6004803603602081101561018757600080fd5b81019080803590602001909291905050506106bb565b6040518082815260200191505060405180910390f35b3480156101bf57600080fd5b5061027160048036036101808110156101d757600080fd5b81019080803590602001909291908035906020019092919080359060200190929190803573ffffffffffffffffffffffffffffffffffffffff16906020019092919080359060200190929190803590602001909291908035906020019092919080359060200190929190803590602001909291908035906020019092919080359060200190929190803590602001909291905050506106db565b005b34801561027f57600080fd5b506102ac6004803603602081101561029657600080fd5b8101908080359060200190929190505050610a0e565b005b3480156102ba57600080fd5b506102c3610b33565b6040518082815260200191505060405180910390f35b3480156102e557600080fd5b506102ee610b40565b6040518082815260200191505060405180910390f35b6103306004803603602081101561031a57600080fd5b8101908080359060200190929190505050610b4a565b005b34801561033e57600080fd5b5061036b6004803603602081101561035557600080fd5b8101908080359060200190929190505050610d06565b005b34801561037957600080fd5b506103bc6004803603602081101561039057600080fd5b81019080803573ffffffffffffffffffffffffffffffffffffffff169060200190929190505050610e10565b60405180848152602001838152602001828152602001935050505060405180910390f35b3480156103ec57600080fd5b506103f5610ea4565b005b6104236004803603602081101561040d57600080fd5b810190808035906020019092919050505061102c565b005b34801561043157600080fd5b5061043a6111c8565b604051808273ffffffffffffffffffffffffffffffffffffffff1673ffffffffffffffffffffffffffffffffffffffff16815260200191505060405180910390f35b6104c66004803603608081101561049257600080fd5b81019080803590602001909291908035906020019092919080359060200190929190803590602001909291905050506111f1565b005b3480156104d457600080fd5b50610501600480360360208110156104eb57600080fd5b81019080803590602001909291905050506112f7565b604051808d600581111561051157fe5b60ff1681526020018c73ffffffffffffffffffffffffffffffffffffffff1673ffffffffffffffffffffffffffffffffffffffff1681526020018b73ffffffffffffffffffffffffffffffffffffffff1673ffffffffffffffffffffffffffffffffffffffff1681526020018a81526020018981526020018881526020018781526020018681526020018581526020018481526020018381526020018273ffffffffffffffffffffffffffffffffffffffff1673ffffffffffffffffffffffffffffffffffffffff1681526020019c5050505050505050505050505060405180910390f35b34801561060257600080fd5b506106456004803603602081101561061957600080fd5b81019080803573ffffffffffffffffffffffffffffffffffffffff16906020019092919050505061154d565b005b34801561065357600080fd5b506106806004803603602081101561066a57600080fd5b810190808035906020019092919050505061175a565b604051808215151515815260200191505060405180910390f35b6000600282815481106106a957fe5b90600052602060002001549050919050565b600060036000838152602001908152602001600020600a01549050919050565b6106e7338d8d8d611787565b6106f389898989611787565b6106fb611c08565b604051806101e0016040528060011515815260200160016002805490500181526020016001600581111561072b57fe5b81526020013373ffffffffffffffffffffffffffffffffffffffff1681526020018b73ffffffffffffffffffffffffffffffffffffffff16815260200142815260200160008152602001600081526020018781526020018681526020018581526020016001548152602001848152602001838152602001600073ffffffffffffffffffffffffffffffffffffffff16815250905060006107fc826020015183608001518460a001518561010001518661012001518761014001518861016001518961018001518a6101a00151611808565b9050816003600083815260200190815260200160002060008201518160000160006101000a81548160ff0219169083151502179055506020820151816001015560408201518160020160006101000a81548160ff0219169083600581111561086057fe5b021790555060608201518160020160016101000a81548173ffffffffffffffffffffffffffffffffffffffff021916908373ffffffffffffffffffffffffffffffffffffffff16021790555060808201518160030160006101000a81548173ffffffffffffffffffffffffffffffffffffffff021916908373ffffffffffffffffffffffffffffffffffffffff16021790555060a0820151816004015560c0820151816005015560e0820151816006015561010082015181600701556101208201518160080155610140820151816009015561016082015181600a015561018082015181600b01556101a082015181600c01556101c082015181600d0160006101000a81548173ffffffffffffffffffffffffffffffffffffffff021916908373ffffffffffffffffffffffffffffffffffffffff16021790555090505060028190806001815401808255809150506001900390600052602060002001600090919091909150557f8f58f29c19eecd8fcd674b2a51b0bc139045b12728c7065cd974c3567aa57e40816040518082815260200191505060405180910390a15050505050505050505050505050565b8060006003600083815260200190815260200160002060030160009054906101000a900473ffffffffffffffffffffffffffffffffffffffff1690508073ffffffffffffffffffffffffffffffffffffffff163373ffffffffffffffffffffffffffffffffffffffff1614610ace576040517f08c379a000000000000000000000000000000000000000000000000000000000815260040180806020018281038252603a815260200180611d37603a913960400191505060405180910390fd5b610ad98360006118fe565b7f0a3af7e29eeef5472d583bb547fa82786fde469a04eeddb2dbb0f477c5d2cdf8836003600086815260200190815260200160002060060154604051808381526020018281526020019250505060405180910390a1505050565b6000600280549050905090565b6000600154905090565b8060006003600083815260200190815260200160002060020160019054906101000a900473ffffffffffffffffffffffffffffffffffffffff1690508073ffffffffffffffffffffffffffffffffffffffff163373ffffffffffffffffffffffffffffffffffffffff1614610c0a576040517f08c379a0000000000000000000000000000000000000000000000000000000008152600401808060200182810382526039815260200180611cfe6039913960400191505060405180910390fd5b6000600360008581526020019081526020016000206005015411610c96576040517f08c379a000000000000000000000000000000000000000000000000000000000815260040180806020018281038252601d8152602001807f44656c697665727920686173206e6f742073746172746564207965742100000081525060200191505060405180910390fd5b600060036000858152602001908152602001600020600c0154421115905080610cc557610cc48460016118fe565b5b7fadffe46ea542a43715a0f71b6ec148f24390714c73e0455ddcc7b18858b7baf981604051808215151515815260200191505060405180910390a150505050565b610d0e611994565b73ffffffffffffffffffffffffffffffffffffffff166000809054906101000a900473ffffffffffffffffffffffffffffffffffffffff1673ffffffffffffffffffffffffffffffffffffffff1614610dcf576040517f08c379a00000000000000000000000000000000000000000000000000000000081526004018080602001828103825260208152602001807f4f776e61626c653a2063616c6c6572206973206e6f7420746865206f776e657281525060200191505060405180910390fd5b806001819055507f7944cc49dc8637e3cacb75b6261e778f93a87026e0357ae7c3b0e434324afa35816040518082815260200191505060405180910390a150565b6000806000610e1d611cd3565b600460008673ffffffffffffffffffffffffffffffffffffffff1673ffffffffffffffffffffffffffffffffffffffff16815260200190815260200160002060405180606001604052908160008201548152602001600182015481526020016002820154815250509050806000015181602001518260400151935093509350509193909250565b610eac611994565b73ffffffffffffffffffffffffffffffffffffffff166000809054906101000a900473ffffffffffffffffffffffffffffffffffffffff1673ffffffffffffffffffffffffffffffffffffffff1614610f6d576040517f08c379a00000000000000000000000000000000000000000000000000000000081526004018080602001828103825260208152602001807f4f776e61626c653a2063616c6c6572206973206e6f7420746865206f776e657281525060200191505060405180910390fd5b600073ffffffffffffffffffffffffffffffffffffffff166000809054906101000a900473ffffffffffffffffffffffffffffffffffffffff1673ffffffffffffffffffffffffffffffffffffffff167f8be0079c531659141344cd1fd0a4f28419497f9722a3daafe3b4186f6b6457e060405160405180910390a360008060006101000a81548173ffffffffffffffffffffffffffffffffffffffff021916908373ffffffffffffffffffffffffffffffffffffffff160217905550565b8060006003600083815260200190815260200160002060020160019054906101000a900473ffffffffffffffffffffffffffffffffffffffff1690508073ffffffffffffffffffffffffffffffffffffffff163373ffffffffffffffffffffffffffffffffffffffff16146110ec576040517f08c379a0000000000000000000000000000000000000000000000000000000008152600401808060200182810382526039815260200180611cfe6039913960400191505060405180910390fd5b6003600084815260200190815260200160002060090154341461115a576040517f08c379a0000000000000000000000000000000000000000000000000000000008152600401808060200182810382526026815260200180611d976026913960400191505060405180910390fd5b61116583600361199c565b61116e836119d7565b7f7efb9e00785d11bbde17ede72aaf82e2d12116c778a581e0c79c9ac700c09f40836003600086815260200190815260200160002060050154604051808381526020018281526020019250505060405180910390a1505050565b60008060009054906101000a900473ffffffffffffffffffffffffffffffffffffffff16905090565b60036000858152602001908152602001600020600b0154341461125f576040517f08c379a0000000000000000000000000000000000000000000000000000000008152600401808060200182810382526027815260200180611dbd6027913960400191505060405180910390fd5b600033905061127081858585611787565b61127b85600261199c565b61128585826119f5565b7f5853829576650e947c16f95fa583e32057a42faccc138d492e50d903e83797128582604051808381526020018273ffffffffffffffffffffffffffffffffffffffff1673ffffffffffffffffffffffffffffffffffffffff1681526020019250505060405180910390a15050505050565b600080600080600080600080600080600080611311611c08565b600360008f8152602001908152602001600020604051806101e00160405290816000820160009054906101000a900460ff16151515158152602001600182015481526020016002820160009054906101000a900460ff16600581111561137357fe5b600581111561137e57fe5b81526020016002820160019054906101000a900473ffffffffffffffffffffffffffffffffffffffff1673ffffffffffffffffffffffffffffffffffffffff1673ffffffffffffffffffffffffffffffffffffffff1681526020016003820160009054906101000a900473ffffffffffffffffffffffffffffffffffffffff1673ffffffffffffffffffffffffffffffffffffffff1673ffffffffffffffffffffffffffffffffffffffff168152602001600482015481526020016005820154815260200160068201548152602001600782015481526020016008820154815260200160098201548152602001600a8201548152602001600b8201548152602001600c8201548152602001600d820160009054906101000a900473ffffffffffffffffffffffffffffffffffffffff1673ffffffffffffffffffffffffffffffffffffffff1673ffffffffffffffffffffffffffffffffffffffff168152505090508060400151816060015182608001518360a001518460c001518560e001518661010001518761012001518861014001518961018001518a6101a001518b6101c001518a9a509c509c509c509c509c509c509c509c509c509c509c509c505091939597999b5091939597999b565b611555611994565b73ffffffffffffffffffffffffffffffffffffffff166000809054906101000a900473ffffffffffffffffffffffffffffffffffffffff1673ffffffffffffffffffffffffffffffffffffffff1614611616576040517f08c379a00000000000000000000000000000000000000000000000000000000081526004018080602001828103825260208152602001807f4f776e61626c653a2063616c6c6572206973206e6f7420746865206f776e657281525060200191505060405180910390fd5b600073ffffffffffffffffffffffffffffffffffffffff168173ffffffffffffffffffffffffffffffffffffffff16141561169c576040517f08c379a0000000000000000000000000000000000000000000000000000000008152600401808060200182810382526026815260200180611d716026913960400191505060405180910390fd5b8073ffffffffffffffffffffffffffffffffffffffff166000809054906101000a900473ffffffffffffffffffffffffffffffffffffffff1673ffffffffffffffffffffffffffffffffffffffff167f8be0079c531659141344cd1fd0a4f28419497f9722a3daafe3b4186f6b6457e060405160405180910390a3806000806101000a81548173ffffffffffffffffffffffffffffffffffffffff021916908373ffffffffffffffffffffffffffffffffffffffff16021790555050565b60006003600083815260200190815260200160002060000160009054906101000a900460ff169050919050565b604051806060016040528084815260200183815260200182815250600460008673ffffffffffffffffffffffffffffffffffffffff1673ffffffffffffffffffffffffffffffffffffffff16815260200190815260200160002060008201518160000155602082015181600101556040820151816002015590505050505050565b600089338a8a8a8a8a8a8a8a604051602001808b81526020018a73ffffffffffffffffffffffffffffffffffffffff1673ffffffffffffffffffffffffffffffffffffffff166c010000000000000000000000000281526014018973ffffffffffffffffffffffffffffffffffffffff1673ffffffffffffffffffffffffffffffffffffffff166c010000000000000000000000000281526014018881526020018781526020018681526020018581526020018481526020018381526020018281526020019a50505050505050505050506040516020818303038152906040528051906020012090509998505050505050505050565b801561191d5761190d82611a4e565b61191882600561199c565b611932565b61192682611b0e565b61193182600461199c565b5b61193b82611bea565b7f0a3af7e29eeef5472d583bb547fa82786fde469a04eeddb2dbb0f477c5d2cdf8826003600085815260200190815260200160002060060154604051808381526020018281526020019250505060405180910390a15050565b600033905090565b806003600084815260200190815260200160002060020160006101000a81548160ff021916908360058111156119ce57fe5b02179055505050565b42600360008381526020019081526020016000206005018190555050565b8060036000848152602001908152602001600020600d0160006101000a81548173ffffffffffffffffffffffffffffffffffffffff021916908373ffffffffffffffffffffffffffffffffffffffff1602179055505050565b60006003600083815260200190815260200160002060020160019054906101000a900473ffffffffffffffffffffffffffffffffffffffff169050600060036000848152602001908152602001600020600901549050600060036000858152602001908152602001600020600b0154820190508273ffffffffffffffffffffffffffffffffffffffff166108fc829081150290604051600060405180830381858888f19350505050158015611b07573d6000803e3d6000fd5b5050505050565b600060036000838152602001908152602001600020600d0160009054906101000a900473ffffffffffffffffffffffffffffffffffffffff16905060006003600084815260200190815260200160002060090154905060006064600154830281611b7457fe5b04905060008183039050600060036000878152602001908152602001600020600b0154820190508473ffffffffffffffffffffffffffffffffffffffff166108fc829081150290604051600060405180830381858888f19350505050158015611be1573d6000803e3d6000fd5b50505050505050565b42600360008381526020019081526020016000206006018190555050565b604051806101e001604052806000151581526020016000815260200160006005811115611c3157fe5b8152602001600073ffffffffffffffffffffffffffffffffffffffff168152602001600073ffffffffffffffffffffffffffffffffffffffff168152602001600081526020016000815260200160008152602001600080191681526020016000801916815260200160008152602001600081526020016000815260200160008152602001600073ffffffffffffffffffffffffffffffffffffffff1681525090565b6040518060600160405280600080191681526020016000801916815260200160008019168152509056fe4f6e6c79207468652063726561746f72206f66207468652064656c69766572792063616e20706572666f726d207468697320616374696f6e2e4f6e6c7920746865207265636569766572206f66207468652064656c69766572792063616e20706572666f726d207468697320616374696f6e2e4f776e61626c653a206e6577206f776e657220697320746865207a65726f206164647265737356616c75652073686f756c6420626520657175616c20746f2072657761726420616d6f756e7456616c75652073686f756c6420626520657175616c20746f2063617574696f6e20616d6f756e74a264697066735822122060026f98809c1348c69ae0c6438a0894540e793aa06df4cdc06cb2de98658f9f64736f6c63430006060033",
    "source": "pragma solidity ^0.6.6;\n\nimport \"@openzeppelin/contracts/access/Ownable.sol\";\n\ncontract DeliveryManager is Ownable {\n    enum DeliveryState {\n        UNKNOWN,\n        PENDING,\n        AWAITING_PICKUP,\n        STARTED,\n        ENDED,\n        ENDED_OVERTIME\n    }\n\n    struct User {\n        bytes32 name;\n        bytes32 phone;\n        bytes32 email;\n    }\n\n    struct Delivery {\n        bool exists;\n        uint nonce;\n        DeliveryState state;\n        address payable sender;\n        address receiver;\n        uint timestamp;\n        uint startTime;\n        uint endTime;\n        bytes32 fromAddress;\n        bytes32 toAddress;\n        uint reward;\n        uint commissionRate;\n        uint cautionAmount;\n        uint256 deadline;\n        address payable courier;\n    }\n\n    uint private commissionRate;\n    bytes32[] private deliveryHashes;\n\n    mapping(bytes32 => Delivery) private deliveries;\n    mapping(address => User) private users;\n\n    event DeliveryCreated(bytes32 _deliveryHash);\n    event NewDeliveryApplication(bytes32 _deliveryHash, address _applicant);\n    event DeliveryStarted(bytes32 _deliveryHash, uint _startTime);\n    event DeliveryEnded(bytes32 _deliveryHash, uint _endTime);\n    event CommissionRateChanged(uint _newCommissionRate);\n    event DeadlineCheck(bool _isOnTime);\n\n    constructor() public {\n        commissionRate = 10;\n    }\n\n    modifier onlyDeliveryCreator(bytes32 _deliveryHash) {\n        address _deliveryCreator = deliveries[_deliveryHash].sender;\n        require(msg.sender == _deliveryCreator, 'Only the creator of the delivery can perform this action.');\n        _;\n    }\n\n    modifier onlyDeliveryReceiver(bytes32 _deliveryHash) {\n        address _deliveryReceiver = deliveries[_deliveryHash].receiver;\n        require(msg.sender == _deliveryReceiver, 'Only the receiver of the delivery can perform this action.');\n        _;\n    }\n\n    function createDelivery(\n        bytes32 _senderName,\n        bytes32 _senderPhone,\n        bytes32 _senderEmail,\n        address _receiverEthAddress,\n        bytes32 _receiverName,\n        bytes32 _receiverPhone,\n        bytes32 _receiverEmail,\n        bytes32 _fromAddress,\n        bytes32 _toAddress,\n        uint _reward,\n        uint _cautionAmount,\n        uint256 _deadline // epoch Date\n        ) public {\n\n        _addUser(msg.sender, _senderName, _senderPhone, _senderEmail);\n        _addUser(_receiverEthAddress, _receiverName, _receiverPhone, _receiverEmail);\n\n        Delivery memory _delivery = Delivery(\n            true,\n            deliveryHashes.length + 1,\n            DeliveryState.PENDING,\n            msg.sender,\n            _receiverEthAddress,\n            now,\n            0,\n            0,\n            _fromAddress,\n            _toAddress,\n            _reward,\n            commissionRate,\n            _cautionAmount,\n            _deadline,\n            address(0)\n        );\n        bytes32 deliveryHash = _generateDeliveryHash(\n            _delivery.nonce,\n            _delivery.receiver,\n            _delivery.timestamp,\n            _delivery.fromAddress,\n            _delivery.toAddress,\n            _delivery.reward,\n            _delivery.commissionRate,\n            _delivery.cautionAmount,\n            _delivery.deadline\n        );\n\n        deliveries[deliveryHash] = _delivery;\n        deliveryHashes.push(deliveryHash);\n        emit DeliveryCreated(deliveryHash);\n    }\n\n    function getDelivery(bytes32 _deliveryHash) public view returns (\n        DeliveryState state,\n        address sender,\n        address receiver,\n        uint timestamp,\n        uint startTime,\n        uint endTime,\n        bytes32 fromAddress,\n        bytes32 toAddress,\n        uint reward,\n        uint cautionAmount,\n        uint256 deadline,\n        address payable courier\n    ) {\n        Delivery memory _delivery = deliveries[_deliveryHash];\n        return (\n            _delivery.state,\n            _delivery.sender,\n            _delivery.receiver,\n            _delivery.timestamp,\n            _delivery.startTime,\n            _delivery.endTime,\n            _delivery.fromAddress,\n            _delivery.toAddress,\n            _delivery.reward,\n            _delivery.cautionAmount,\n            _delivery.deadline,\n            _delivery.courier\n        );\n    }\n\n    function getDeliveryHash(uint _index) public view returns (bytes32) {\n        return deliveryHashes[_index];\n    }\n\n    function getDeliveryCount() public view returns (uint) {\n        return deliveryHashes.length;\n    }\n\n    function getCommissionRateForDelivery(bytes32 _deliveryHash) public view returns (uint) {\n        return deliveries[_deliveryHash].commissionRate;\n    }\n\n    function doesDeliveryExist(bytes32 _deliveryHash) public view returns (bool) {\n        return deliveries[_deliveryHash].exists;\n    }\n\n    function getUser(address _userEthAddress) public view returns (bytes32 name, bytes32 phone, bytes32 email) {\n        User memory user = users[_userEthAddress];\n        return (user.name, user.phone, user.email);\n    }\n\n    function applyToDelivery(bytes32 _deliveryHash, bytes32 _applicantName, bytes32 _applicantPhone, bytes32 _applicantEmail) public payable {\n        require(msg.value == deliveries[_deliveryHash].cautionAmount, 'Value should be equal to caution amount');\n        address payable _newCourier = msg.sender;\n        _addUser(_newCourier, _applicantName, _applicantPhone, _applicantEmail);\n        _changeDeliveryState(_deliveryHash, DeliveryState.AWAITING_PICKUP);\n        _assignCourier(_deliveryHash, _newCourier);\n\n        emit NewDeliveryApplication(_deliveryHash, _newCourier);\n    }\n\n    function startDelivery(bytes32 _deliveryHash) public payable onlyDeliveryCreator(_deliveryHash) {\n        require(msg.value == deliveries[_deliveryHash].reward, 'Value should be equal to reward amount');\n        _changeDeliveryState(_deliveryHash, DeliveryState.STARTED);\n        _addStartTime(_deliveryHash);\n        emit DeliveryStarted(_deliveryHash, deliveries[_deliveryHash].startTime);\n    }\n\n    function signReceip(bytes32 _deliveryHash) public onlyDeliveryReceiver(_deliveryHash) {\n        _endDelivery(_deliveryHash, false);\n        emit DeliveryEnded(_deliveryHash, deliveries[_deliveryHash].endTime);\n    }\n\n    function changeCommissionRate(uint _newRate) public onlyOwner() {\n        commissionRate = _newRate;\n        emit CommissionRateChanged(_newRate);\n    }\n\n    function triggerIsOverTime(bytes32 _deliveryHash) public payable onlyDeliveryCreator(_deliveryHash) {\n        require(deliveries[_deliveryHash].startTime > 0, 'Delivery has not started yet!');\n        bool _isOnTime = block.timestamp <= deliveries[_deliveryHash].deadline;\n        if (!_isOnTime) {\n            _endDelivery(_deliveryHash, true);\n        }\n        emit DeadlineCheck(_isOnTime);\n    }\n\n    function getCommissionRate() public view returns (uint) {\n        return commissionRate;\n    }\n\n    function _addUser(address _address, bytes32 _name, bytes32 _phone, bytes32 _email) private {\n        users[_address] = User(_name, _phone, _email);\n    }\n\n    function _generateDeliveryHash(\n        uint _nonce,\n        address _receiverEthAddress,\n        uint _timestamp,\n        bytes32 _fromAddress,\n        bytes32 _toAddress,\n        uint _reward,\n        uint _commissionRate,\n        uint _cautionAmount,\n        uint256 _deadline\n    ) private view returns (bytes32) {\n        return keccak256(\n            abi.encodePacked(\n                _nonce,\n                msg.sender,\n                _receiverEthAddress,\n                _timestamp,\n                _fromAddress,\n                _toAddress,\n                _reward,\n                _commissionRate,\n                _cautionAmount,\n                _deadline\n            )\n        );\n    }\n\n    function _changeDeliveryState(bytes32 _deliveryHash, DeliveryState _newState) private {\n        deliveries[_deliveryHash].state = _newState;\n    }\n\n    function _assignCourier(bytes32 _deliveryHash, address payable _courier) private {\n        deliveries[_deliveryHash].courier = _courier;\n    }\n\n    function _addStartTime(bytes32 _deliveryHash) private {\n        deliveries[_deliveryHash].startTime = now;\n    }\n\n    function _addEndTime(bytes32 _deliveryHash) private {\n        deliveries[_deliveryHash].endTime = now;\n    }\n\n    function _endDelivery(bytes32 _deliveryHash, bool _isOverTime) private {\n        if (_isOverTime) {\n            _cashDeposit(_deliveryHash);\n            _changeDeliveryState(_deliveryHash, DeliveryState.ENDED_OVERTIME);\n        } else {\n            _payCourier(_deliveryHash);\n            _changeDeliveryState(_deliveryHash, DeliveryState.ENDED);\n        }\n        _addEndTime(_deliveryHash);\n\n        emit DeliveryEnded(_deliveryHash, deliveries[_deliveryHash].endTime);\n    }\n\n    function _payCourier(bytes32 _deliveryHash) private {\n        address payable _courier = deliveries[_deliveryHash].courier;\n        uint _reward = deliveries[_deliveryHash].reward;\n        uint _contractOwnerCommission = _reward * commissionRate / 100;\n        uint _finalReward = _reward - _contractOwnerCommission;\n        uint _finalAmountToTransfer = _finalReward + deliveries[_deliveryHash].cautionAmount;\n        _courier.transfer(_finalAmountToTransfer);\n    }\n\n    function _cashDeposit(bytes32 _deliveryHash) private {\n        address payable _sender = deliveries[_deliveryHash].sender;\n        uint _reward = deliveries[_deliveryHash].reward;\n        uint _finalAmountToTransfer = _reward + deliveries[_deliveryHash].cautionAmount;\n        _sender.transfer(_finalAmountToTransfer);\n    }\n\n}",
    "sourcePath": "/Users/olivierriccini/code/projects/decentralized-delivery-app/decentralized-delivery-truffle/contracts/DeliveryManager.sol",
    "compiler": {
        "name": "solc",
        "version": "0.6.6+commit.6c089d02.Emscripten.clang"
    },
    "schemaVersion": "3.0.23",
    "updatedAt": "2020-06-27T23:02:02.148Z",
    "devdoc": {
        "methods": {
            "owner()": {
                "details": "Returns the address of the current owner."
            },
            "renounceOwnership()": {
                "details": "Leaves the contract without owner. It will not be possible to call `onlyOwner` functions anymore. Can only be called by the current owner.     * NOTE: Renouncing ownership will leave the contract without an owner, thereby removing any functionality that is only available to the owner."
            },
            "transferOwnership(address)": {
                "details": "Transfers ownership of the contract to a new account (`newOwner`). Can only be called by the current owner."
            }
        }
    },
    "userdoc": {
        "methods": {}
    }
}